{
    "contractName": "Doctor",
    "abi": [
        {
            "inputs": [],
            "stateMutability": "nonpayable",
            "type": "constructor"
        },
        {
            "inputs": [
                {
                    "internalType": "uint16",
                    "name": "doctor_id",
                    "type": "uint16"
                }
            ],
            "name": "retreive_doctor_details",
            "outputs": [
                {
                    "internalType": "string",
                    "name": "",
                    "type": "string"
                },
                {
                    "internalType": "string",
                    "name": "",
                    "type": "string"
                },
                {
                    "internalType": "uint256",
                    "name": "",
                    "type": "uint256"
                },
                {
                    "internalType": "string",
                    "name": "",
                    "type": "string"
                }
            ],
            "stateMutability": "view",
            "type": "function"
        },
        {
            "inputs": [
                {
                    "internalType": "uint16",
                    "name": "doctor_id",
                    "type": "uint16"
                },
                {
                    "internalType": "string",
                    "name": "_doctor_name",
                    "type": "string"
                },
                {
                    "internalType": "string",
                    "name": "_doctor_specialisation",
                    "type": "string"
                },
                {
                    "internalType": "uint256",
                    "name": "_doctor_ph_no",
                    "type": "uint256"
                },
                {
                    "internalType": "string",
                    "name": "_doctor_address",
                    "type": "string"
                }
            ],
            "name": "store_doctor_details",
            "outputs": [],
            "stateMutability": "nonpayable",
            "type": "function"
        }
    ],
    "bytecode": "608060405234801561001057600080fd5b50600580546001600160a01b031916730a170e055564608dd094977990014cd4049215f8179055610742806100466000396000f3fe608060405234801561001057600080fd5b50600436106100365760003560e01c806368bdecfe1461003b5780636cac3a1814610067575b600080fd5b61004e6100493660046104d2565b61007c565b60405161005e9493929190610541565b60405180910390f35b61007a61007536600461062e565b61028a565b005b6060806000606060008060008761ffff1681526020019081526020016000206040518060800160405290816000820180546100b6906106d1565b80601f01602080910402602001604051908101604052809291908181526020018280546100e2906106d1565b801561012f5780601f106101045761010080835404028352916020019161012f565b820191906000526020600020905b81548152906001019060200180831161011257829003601f168201915b50505050508152602001600182018054610148906106d1565b80601f0160208091040260200160405190810160405280929190818152602001828054610174906106d1565b80156101c15780601f10610196576101008083540402835291602001916101c1565b820191906000526020600020905b8154815290600101906020018083116101a457829003601f168201915b50505050508152602001600282015481526020016003820180546101e4906106d1565b80601f0160208091040260200160405190810160405280929190818152602001828054610210906106d1565b801561025d5780601f106102325761010080835404028352916020019161025d565b820191906000526020600020905b81548152906001019060200180831161024057829003601f168201915b505050919092525050815160208301516040840151606090940151919a9099509297509550909350505050565b6005546001600160a01b031633146102e05760405162461bcd60e51b81526020600482015260156024820152741058d8d95cdcc81a5cc81b9bdd08185b1b1bddd959605a1b604482015260640160405180910390fd5b83516102f39060019060208701906103a7565b5082516103079060029060208601906103a7565b50600382905580516103209060049060208401906103a7565b5061ffff851660009081526020819052604090206001805490919081908390610348906106d1565b61035392919061042b565b506001820181600101908054610368906106d1565b61037392919061042b565b50600282015481600201556003820181600301908054610392906106d1565b61039d92919061042b565b5050505050505050565b8280546103b3906106d1565b90600052602060002090601f0160209004810192826103d5576000855561041b565b82601f106103ee57805160ff191683800117855561041b565b8280016001018555821561041b579182015b8281111561041b578251825591602001919060010190610400565b506104279291506104a6565b5090565b828054610437906106d1565b90600052602060002090601f016020900481019282610459576000855561041b565b82601f1061046a578054855561041b565b8280016001018555821561041b57600052602060002091601f016020900482015b8281111561041b57825482559160010191906001019061048b565b5b8082111561042757600081556001016104a7565b803561ffff811681146104cd57600080fd5b919050565b6000602082840312156104e457600080fd5b6104ed826104bb565b9392505050565b6000815180845260005b8181101561051a576020818501810151868301820152016104fe565b8181111561052c576000602083870101525b50601f01601f19169290920160200192915050565b60808152600061055460808301876104f4565b828103602084015261056681876104f4565b9050846040840152828103606084015261058081856104f4565b979650505050505050565b634e487b7160e01b600052604160045260246000fd5b600082601f8301126105b257600080fd5b813567ffffffffffffffff808211156105cd576105cd61058b565b604051601f8301601f19908116603f011681019082821181831017156105f5576105f561058b565b8160405283815286602085880101111561060e57600080fd5b836020870160208301376000602085830101528094505050505092915050565b600080600080600060a0868803121561064657600080fd5b61064f866104bb565b9450602086013567ffffffffffffffff8082111561066c57600080fd5b61067889838a016105a1565b9550604088013591508082111561068e57600080fd5b61069a89838a016105a1565b94506060880135935060808801359150808211156106b757600080fd5b506106c4888289016105a1565b9150509295509295909350565b600181811c908216806106e557607f821691505b6020821081141561070657634e487b7160e01b600052602260045260246000fd5b5091905056fea2646970667358221220f2813f6cf17ff5e8b8945e38b0b1c258b4d05b0594dd5d1651d22c998c676c9364736f6c63430008090033",
    "sourcePath": "c:/Users/hp/Desktop/MedBlockchain/doctor.sol",
    "compiler": {
        "name": "solc",
        "version": "0.8.9+commit.e5eed63a"
    },
    "functionHashes": {
        "retreive_doctor_details(uint16)": "68bdecfe",
        "store_doctor_details(uint16,string,string,uint256,string)": "6cac3a18"
    },
    "gasEstimates": {
        "creation": {
            "codeDepositCost": "371600",
            "executionCost": "24647",
            "totalCost": "396247"
        },
        "external": {
            "retreive_doctor_details(uint16)": "infinite",
            "store_doctor_details(uint16,string,string,uint256,string)": "infinite"
        }
    }
}